:060000000A128A116F2FA5
:100EDE00F001F10183010A128A11752F0130831678
:100EEE00031788008901FF308316031385008701DD
:100EFE00C030831203139F00831603139F018312C6
:100F0E00031387018A2F831203131F14000000009E
:100F1E0000000000831203139F149D2F1E08F20081
:100F2E00F3017208F0007308F1009D2F9F18A02F97
:100F3E00A12F952FA22F7108803AFF0080307F02DB
:100F4E00031DAB2F1F307002031CAE2FAF2FB42F1B
:100F5E000130831203138700B42F7108803AFF000B
:100F6E0080307F02031DBD2F5B307002031CC02F2B
:100F7E00C12FC62F0330831203138700C62F7108AB
:100F8E00803AFF0080307F02031DCF2F9730700212
:100F9E00031CD22FD32FD82F0730831203138700B1
:100FAE00D82F7108803AFF0080307F02031DE12F99
:100FBE00D3307002031CE42FE52FEA2F0F3083127B
:100FCE0003138700EA2F7108803AFF0080307F02FA
:100FDE00031DF32F1F3070020318F62FF72F8A2FE1
:100FEE008312031387018A2F8A2F8A2F0A128A11DE
:020FFE000028C9
:02400E00C430BC
:00000001FF
