:060000000A128A118D2F87
:100EF800F434013401308316031381000D3083125A
:100F080003138100872F0B1D8A2F8B2F872F0B111F
:100F180008000A128A117C270A128A11F6000A129E
:100F28008A117D270A128A11F70083010A128A1191
:100F3800B82FF201F301AC2F0A128A117E270A1288
:100F48008A110130F2070318F30A0030F307AC2FB7
:100F580073087102031DB22F720870020318B52FAF
:100F6800B62FA02FB72F0800831603178801831602
:100F78000313870186018312031387018601C42F97
:100F88000130F4000030F5007508803AFF00803029
:100F98007F02031DD12F09307402031CD42FD52FD3
:100FA800D72FC42FC42F7408831203138700770820
:100FB800F101F1077608F001F0070A128A119D275E
:100FC8000A128A1101300310F40DF50DFF3E031DBE
:100FD800E72F7508803AFF0080307F02031DF62F47
:100FE80009307402031CF92FFA2FD72FC42FC42FEE
:080FF800C42F0A128A1100281F
:04400E00D4E0FFFFFC
:00000001FF
