:060000000A128A11A82F6C
:100F2E00F434013401308316031381000D30831223
:100F3E0003138100A22F0B1DA52FA62FA22F0B117D
:100F4E0008000A128A1197270A128A11F4000A124F
:100F5E008A1198270A128A11F50083010A128A1142
:100F6E00D32FF201F301C72F0A128A1199270A1201
:100F7E008A110130F2070318F30A0030F307C72F66
:100F8E0073087102031DCD2F720870020318D02F43
:100F9E00D12FBB2FD22F080083160317880183167B
:100FAE000313870186018312031387018601DF2F46
:100FBE008312031307147508F101F1077408F00189
:100FCE00F0070A128A11B8270A128A118312031324
:100FDE0007107508F101F1077408F001F0070A1205
:100FEE008A11B8270A128A11DF2FDF2F0A128A11EF
:020FFE000028C9
:04400E00D4E0FFFFFC
:00000001FF
