:060000000A128A11742FA0
:100EE80083010A128A11A22F01308316031381008D
:100EF8000D30831203138100812F0B1D842F852F42
:100F0800812F0B110800F201F301962F0A128A11A2
:100F180078270A128A110130F2070318F30A003001
:100F2800F307962F73087102031D9C2F7208700235
:100F380003189F2FA02F8A2FA12F0800F5018316D1
:100F4800031788018316031387018601FF30850084
:100F58008312031387018601B12F8519B42FB52F8A
:100F6800B12F0130F4007408F507D52F0714871046
:100F780007118711E42F0710871407118711E42F31
:100F88000710871007158711E42F0710871007111E
:100F98008715E42FF5010710871007118711E42F33
:100FA800E42F7508013A0319BA2F033A0319BF2F22
:100FB800013A0319C42F073A0319C92FCE2FE42F7A
:100FC800851DE72FE82FE42FE92F0A30F0000030C5
:100FD800F1000A128A1187270A128A11F32F831245
:100FE8000313851DF82FF92FF32FB12FB12FB12F30
:080FF800B12F0A128A11002832
:04400E00D4E0FFFFFC
:00000001FF
