:060000000A128A11A72F6D
:100F4E0083010A128A11D52F0130831603138100F3
:100F5E000D30831203138100B42F0B1DB72FB82F42
:100F6E00B42F0B110800F201F301C92F0A128A11D6
:100F7E00AB270A128A110130F2070318F30A003068
:100F8E00F307C92F73087102031DCF2F7208700269
:100F9E000318D22FD32FBD2FD42F0800831603177B
:100FAE0088018316031387018601831203138701B9
:100FBE008601E12F8312031307148710F430F0001B
:100FCE000130F1000A128A11BA270A128A1183120D
:100FDE00031307108714F430F0000130F1000A12E9
:100FEE008A11BA270A128A11E12FE12F0A128A11E9
:020FFE000028C9
:04400E00D4E0FFFFFC
:00000001FF
