:060000000A128A11C52F4F
:100F8A0083010A128A11C92F831603178801831253
:100F9A0003138701831603138701D32F83120313C5
:100FAA000714FF30F000FF30F100DB2F0130F002B0
:100FBA000030031CF103F10271087004031DE62FCF
:100FCA00E72FDB2F831203130710FF30F000FF30E7
:100FDA00F1000130F0020030031CF103F102710844
:100FEA007004031DF92FFA2FEE2FD32FD32FD32FEF
:060FFA000A128A11002812
:04400E00D4E0FFFFFC
:00000001FF
